{
  "contractName": "SimpleStorage",
  "abi": [
    {
      "constant": false,
      "inputs": [
        {
          "name": "x",
          "type": "uint256"
        }
      ],
      "name": "set",
      "outputs": [],
      "payable": false,
      "stateMutability": "nonpayable",
      "type": "function",
      "signature": "0x60fe47b1"
    },
    {
      "constant": true,
      "inputs": [],
      "name": "get",
      "outputs": [
        {
          "name": "",
          "type": "uint256"
        }
      ],
      "payable": false,
      "stateMutability": "view",
      "type": "function",
      "signature": "0x6d4ce63c"
    },
    {
      "constant": false,
      "inputs": [
        {
          "name": "id",
          "type": "uint256"
        },
        {
          "name": "_ProdName",
          "type": "string"
        },
        {
          "name": "_CreatedDate",
          "type": "string"
        }
      ],
      "name": "CreatedProd",
      "outputs": [
        {
          "name": "",
          "type": "uint256"
        }
      ],
      "payable": false,
      "stateMutability": "nonpayable",
      "type": "function",
      "signature": "0xcac9be27"
    },
    {
      "constant": true,
      "inputs": [
        {
          "name": "id",
          "type": "uint256"
        }
      ],
      "name": "GetProd",
      "outputs": [
        {
          "name": "",
          "type": "string"
        }
      ],
      "payable": false,
      "stateMutability": "view",
      "type": "function",
      "signature": "0x7d16a4c3"
    }
  ],
  "bytecode": "0x608060405234801561001057600080fd5b50610575806100206000396000f3fe608060405260043610610062576000357c0100000000000000000000000000000000000000000000000000000000900463ffffffff16806360fe47b1146100675780636d4ce63c146100a25780637d16a4c3146100cd578063cac9be2714610181575b600080fd5b34801561007357600080fd5b506100a06004803603602081101561008a57600080fd5b81019080803590602001909291905050506102fe565b005b3480156100ae57600080fd5b506100b7610308565b6040518082815260200191505060405180910390f35b3480156100d957600080fd5b50610106600480360360208110156100f057600080fd5b8101908080359060200190929190505050610311565b6040518080602001828103825283818151815260200191508051906020019080838360005b8381101561014657808201518184015260208101905061012b565b50505050905090810190601f1680156101735780820380516001836020036101000a031916815260200191505b509250505060405180910390f35b34801561018d57600080fd5b506102e8600480360360608110156101a457600080fd5b8101908080359060200190929190803590602001906401000000008111156101cb57600080fd5b8201836020820111156101dd57600080fd5b803590602001918460018302840111640100000000831117156101ff57600080fd5b91908080601f016020809104026020016040519081016040528093929190818152602001838380828437600081840152601f19601f8201169050808301925050505050505091929192908035906020019064010000000081111561026257600080fd5b82018360208201111561027457600080fd5b8035906020019184600183028401116401000000008311171561029657600080fd5b91908080601f016020809104026020016040519081016040528093929190818152602001838380828437600081840152601f19601f8201169050808301925050505050505091929192905050506103c9565b6040518082815260200191505060405180910390f35b8060008190555050565b60008054905090565b6060600160008381526020019081526020016000206001018054600181600116156101000203166002900480601f0160208091040260200160405190810160405280929190818152602001828054600181600116156101000203166002900480156103bd5780601f10610392576101008083540402835291602001916103bd565b820191906000526020600020905b8154815290600101906020018083116103a057829003601f168201915b50505050509050919050565b6000836001600086815260200190815260200160002060000181905550826001600086815260200190815260200160002060010190805190602001906104109291906104a4565b508160016000868152602001908152602001600020600201908051906020019061043b9291906104a4565b5060006001600086815260200190815260200160002060050160006101000a81548160ff02191690831515021790555060006001600086815260200190815260200160002060050160016101000a81548160ff0219169083151502179055508390509392505050565b828054600181600116156101000203166002900490600052602060002090601f016020900481019282601f106104e557805160ff1916838001178555610513565b82800160010185558215610513579182015b828111156105125782518255916020019190600101906104f7565b5b5090506105209190610524565b5090565b61054691905b8082111561054257600081600090555060010161052a565b5090565b9056fea165627a7a72305820bdd792396f74b725ff00fef5c38aae7ba14119099c602b728a9ab64d76f0b10b0029",
  "source": "// SPDX-License-Identifier: MIT\npragma solidity >=0.4.21 <8.10.0;\n\n// pragma experimental ABIEncoderV2;\n\ncontract SimpleStorage {\n    uint256 storedData;\n\n    struct Prod {\n        uint256 ProdId;\n        string ProdName;\n        string CreatedDate;\n        string PickedDate;\n        string DeliveredDate;\n        bool IsPicked;\n        bool Isdelivered;\n    }\n\n    mapping(uint256 => Prod) Items;\n\n    function set(uint256 x) public {\n        storedData = x;\n    }\n\n    function get() public view returns (uint256) {\n        return storedData;\n    }\n\n    function CreatedProd(\n        uint256 id,\n        string memory _ProdName,\n        string memory _CreatedDate\n    ) public returns (uint256) {\n        Items[id].ProdId = id;\n        Items[id].ProdName = _ProdName;\n        Items[id].CreatedDate = _CreatedDate;\n        Items[id].IsPicked = false;\n        Items[id].Isdelivered = false;\n        return id;\n    }\n\n    function GetProd(uint256 id) public view returns (string memory) {\n        return Items[id].ProdName;\n    }\n}\n",
  "sourcePath": "C:/Users/LENOVO/Desktop/5Feb2022/contracts/SimpleStorage.sol",
  "compiler": {
    "name": "solc",
    "version": "0.5.0+commit.1d4f565a.Emscripten.clang"
  },
  "schemaVersion": "3.0.1",
  "updatedAt": "2022-02-06T06:49:13.955Z",
  "devdoc": {
    "methods": {}
  },
  "userdoc": {
    "methods": {}
  }
}